{
  "_format": "hh-sol-artifact-1",
  "contractName": "JustABoy",
  "sourceName": "contracts/Boy.sol",
  "abi": [
    {
      "inputs": [],
      "stateMutability": "nonpayable",
      "type": "constructor"
    },
    {
      "inputs": [],
      "name": "ApprovalCallerNotOwnerNorApproved",
      "type": "error"
    },
    {
      "inputs": [],
      "name": "ApprovalQueryForNonexistentToken",
      "type": "error"
    },
    {
      "inputs": [],
      "name": "BalanceQueryForZeroAddress",
      "type": "error"
    },
    {
      "inputs": [],
      "name": "MaxGaslessMinted",
      "type": "error"
    },
    {
      "inputs": [],
      "name": "MintERC2309QuantityExceedsLimit",
      "type": "error"
    },
    {
      "inputs": [],
      "name": "MintToZeroAddress",
      "type": "error"
    },
    {
      "inputs": [],
      "name": "MintZeroQuantity",
      "type": "error"
    },
    {
      "inputs": [],
      "name": "MintingNotActive",
      "type": "error"
    },
    {
      "inputs": [],
      "name": "NonexistentToken",
      "type": "error"
    },
    {
      "inputs": [],
      "name": "NotCompatibleWithSpotMints",
      "type": "error"
    },
    {
      "inputs": [
        {
          "internalType": "address",
          "name": "owner",
          "type": "address"
        }
      ],
      "name": "OwnableInvalidOwner",
      "type": "error"
    },
    {
      "inputs": [
        {
          "internalType": "address",
          "name": "account",
          "type": "address"
        }
      ],
      "name": "OwnableUnauthorizedAccount",
      "type": "error"
    },
    {
      "inputs": [],
      "name": "OwnerQueryForNonexistentToken",
      "type": "error"
    },
    {
      "inputs": [],
      "name": "OwnershipNotInitializedForExtraData",
      "type": "error"
    },
    {
      "inputs": [],
      "name": "ReentrancyGuardReentrantCall",
      "type": "error"
    },
    {
      "inputs": [],
      "name": "SequentialMintExceedsLimit",
      "type": "error"
    },
    {
      "inputs": [],
      "name": "SequentialUpToTooSmall",
      "type": "error"
    },
    {
      "inputs": [],
      "name": "SpotMintTokenIdTooSmall",
      "type": "error"
    },
    {
      "inputs": [],
      "name": "TokenAlreadyExists",
      "type": "error"
    },
    {
      "inputs": [],
      "name": "TransferCallerNotOwnerNorApproved",
      "type": "error"
    },
    {
      "inputs": [],
      "name": "TransferFromIncorrectOwner",
      "type": "error"
    },
    {
      "inputs": [],
      "name": "TransferToNonERC721ReceiverImplementer",
      "type": "error"
    },
    {
      "inputs": [],
      "name": "TransferToZeroAddress",
      "type": "error"
    },
    {
      "inputs": [],
      "name": "URIQueryForNonexistentToken",
      "type": "error"
    },
    {
      "anonymous": false,
      "inputs": [
        {
          "indexed": true,
          "internalType": "address",
          "name": "owner",
          "type": "address"
        },
        {
          "indexed": true,
          "internalType": "address",
          "name": "approved",
          "type": "address"
        },
        {
          "indexed": true,
          "internalType": "uint256",
          "name": "tokenId",
          "type": "uint256"
        }
      ],
      "name": "Approval",
      "type": "event"
    },
    {
      "anonymous": false,
      "inputs": [
        {
          "indexed": true,
          "internalType": "address",
          "name": "owner",
          "type": "address"
        },
        {
          "indexed": true,
          "internalType": "address",
          "name": "operator",
          "type": "address"
        },
        {
          "indexed": false,
          "internalType": "bool",
          "name": "approved",
          "type": "bool"
        }
      ],
      "name": "ApprovalForAll",
      "type": "event"
    },
    {
      "anonymous": false,
      "inputs": [
        {
          "indexed": true,
          "internalType": "uint256",
          "name": "fromTokenId",
          "type": "uint256"
        },
        {
          "indexed": false,
          "internalType": "uint256",
          "name": "toTokenId",
          "type": "uint256"
        },
        {
          "indexed": true,
          "internalType": "address",
          "name": "from",
          "type": "address"
        },
        {
          "indexed": true,
          "internalType": "address",
          "name": "to",
          "type": "address"
        }
      ],
      "name": "ConsecutiveTransfer",
      "type": "event"
    },
    {
      "anonymous": false,
      "inputs": [
        {
          "indexed": true,
          "internalType": "address",
          "name": "previousOwner",
          "type": "address"
        },
        {
          "indexed": true,
          "internalType": "address",
          "name": "newOwner",
          "type": "address"
        }
      ],
      "name": "OwnershipTransferred",
      "type": "event"
    },
    {
      "anonymous": false,
      "inputs": [
        {
          "indexed": true,
          "internalType": "address",
          "name": "to",
          "type": "address"
        },
        {
          "indexed": false,
          "internalType": "uint256",
          "name": "quantity",
          "type": "uint256"
        }
      ],
      "name": "TokensMinted",
      "type": "event"
    },
    {
      "anonymous": false,
      "inputs": [
        {
          "indexed": true,
          "internalType": "address",
          "name": "from",
          "type": "address"
        },
        {
          "indexed": true,
          "internalType": "address",
          "name": "to",
          "type": "address"
        },
        {
          "indexed": true,
          "internalType": "uint256",
          "name": "tokenId",
          "type": "uint256"
        }
      ],
      "name": "Transfer",
      "type": "event"
    },
    {
      "inputs": [
        {
          "internalType": "address",
          "name": "to",
          "type": "address"
        },
        {
          "internalType": "uint256",
          "name": "tokenId",
          "type": "uint256"
        }
      ],
      "name": "approve",
      "outputs": [],
      "stateMutability": "payable",
      "type": "function"
    },
    {
      "inputs": [
        {
          "internalType": "address",
          "name": "owner",
          "type": "address"
        }
      ],
      "name": "balanceOf",
      "outputs": [
        {
          "internalType": "uint256",
          "name": "",
          "type": "uint256"
        }
      ],
      "stateMutability": "view",
      "type": "function"
    },
    {
      "inputs": [
        {
          "internalType": "address",
          "name": "to",
          "type": "address"
        },
        {
          "internalType": "uint256",
          "name": "quantity",
          "type": "uint256"
        }
      ],
      "name": "batchMint",
      "outputs": [],
      "stateMutability": "payable",
      "type": "function"
    },
    {
      "inputs": [
        {
          "internalType": "uint256",
          "name": "tokenId",
          "type": "uint256"
        }
      ],
      "name": "getApproved",
      "outputs": [
        {
          "internalType": "address",
          "name": "",
          "type": "address"
        }
      ],
      "stateMutability": "view",
      "type": "function"
    },
    {
      "inputs": [],
      "name": "isActive",
      "outputs": [
        {
          "internalType": "bool",
          "name": "",
          "type": "bool"
        }
      ],
      "stateMutability": "view",
      "type": "function"
    },
    {
      "inputs": [
        {
          "internalType": "address",
          "name": "owner",
          "type": "address"
        },
        {
          "internalType": "address",
          "name": "operator",
          "type": "address"
        }
      ],
      "name": "isApprovedForAll",
      "outputs": [
        {
          "internalType": "bool",
          "name": "",
          "type": "bool"
        }
      ],
      "stateMutability": "view",
      "type": "function"
    },
    {
      "inputs": [
        {
          "internalType": "address",
          "name": "to",
          "type": "address"
        }
      ],
      "name": "mint",
      "outputs": [],
      "stateMutability": "nonpayable",
      "type": "function"
    },
    {
      "inputs": [],
      "name": "name",
      "outputs": [
        {
          "internalType": "string",
          "name": "",
          "type": "string"
        }
      ],
      "stateMutability": "view",
      "type": "function"
    },
    {
      "inputs": [],
      "name": "owner",
      "outputs": [
        {
          "internalType": "address",
          "name": "",
          "type": "address"
        }
      ],
      "stateMutability": "view",
      "type": "function"
    },
    {
      "inputs": [
        {
          "internalType": "uint256",
          "name": "tokenId",
          "type": "uint256"
        }
      ],
      "name": "ownerOf",
      "outputs": [
        {
          "internalType": "address",
          "name": "",
          "type": "address"
        }
      ],
      "stateMutability": "view",
      "type": "function"
    },
    {
      "inputs": [],
      "name": "pricePerToken",
      "outputs": [
        {
          "internalType": "uint256",
          "name": "",
          "type": "uint256"
        }
      ],
      "stateMutability": "view",
      "type": "function"
    },
    {
      "inputs": [],
      "name": "renounceOwnership",
      "outputs": [],
      "stateMutability": "nonpayable",
      "type": "function"
    },
    {
      "inputs": [
        {
          "internalType": "address",
          "name": "from",
          "type": "address"
        },
        {
          "internalType": "address",
          "name": "to",
          "type": "address"
        },
        {
          "internalType": "uint256",
          "name": "tokenId",
          "type": "uint256"
        }
      ],
      "name": "safeTransferFrom",
      "outputs": [],
      "stateMutability": "payable",
      "type": "function"
    },
    {
      "inputs": [
        {
          "internalType": "address",
          "name": "from",
          "type": "address"
        },
        {
          "internalType": "address",
          "name": "to",
          "type": "address"
        },
        {
          "internalType": "uint256",
          "name": "tokenId",
          "type": "uint256"
        },
        {
          "internalType": "bytes",
          "name": "_data",
          "type": "bytes"
        }
      ],
      "name": "safeTransferFrom",
      "outputs": [],
      "stateMutability": "payable",
      "type": "function"
    },
    {
      "inputs": [
        {
          "internalType": "address",
          "name": "operator",
          "type": "address"
        },
        {
          "internalType": "bool",
          "name": "approved",
          "type": "bool"
        }
      ],
      "name": "setApprovalForAll",
      "outputs": [],
      "stateMutability": "nonpayable",
      "type": "function"
    },
    {
      "inputs": [
        {
          "internalType": "uint256",
          "name": "price",
          "type": "uint256"
        }
      ],
      "name": "setPrice",
      "outputs": [],
      "stateMutability": "nonpayable",
      "type": "function"
    },
    {
      "inputs": [
        {
          "internalType": "string",
          "name": "uri",
          "type": "string"
        }
      ],
      "name": "setTokenUri",
      "outputs": [],
      "stateMutability": "nonpayable",
      "type": "function"
    },
    {
      "inputs": [
        {
          "internalType": "bytes4",
          "name": "interfaceId",
          "type": "bytes4"
        }
      ],
      "name": "supportsInterface",
      "outputs": [
        {
          "internalType": "bool",
          "name": "",
          "type": "bool"
        }
      ],
      "stateMutability": "view",
      "type": "function"
    },
    {
      "inputs": [],
      "name": "symbol",
      "outputs": [
        {
          "internalType": "string",
          "name": "",
          "type": "string"
        }
      ],
      "stateMutability": "view",
      "type": "function"
    },
    {
      "inputs": [],
      "name": "toggleMinting",
      "outputs": [],
      "stateMutability": "nonpayable",
      "type": "function"
    },
    {
      "inputs": [
        {
          "internalType": "uint256",
          "name": "tokenId",
          "type": "uint256"
        }
      ],
      "name": "tokenURI",
      "outputs": [
        {
          "internalType": "string",
          "name": "",
          "type": "string"
        }
      ],
      "stateMutability": "view",
      "type": "function"
    },
    {
      "inputs": [],
      "name": "totalSupply",
      "outputs": [
        {
          "internalType": "uint256",
          "name": "result",
          "type": "uint256"
        }
      ],
      "stateMutability": "view",
      "type": "function"
    },
    {
      "inputs": [
        {
          "internalType": "address",
          "name": "from",
          "type": "address"
        },
        {
          "internalType": "address",
          "name": "to",
          "type": "address"
        },
        {
          "internalType": "uint256",
          "name": "tokenId",
          "type": "uint256"
        }
      ],
      "name": "transferFrom",
      "outputs": [],
      "stateMutability": "payable",
      "type": "function"
    },
    {
      "inputs": [
        {
          "internalType": "address",
          "name": "newOwner",
          "type": "address"
        }
      ],
      "name": "transferOwnership",
      "outputs": [],
      "stateMutability": "nonpayable",
      "type": "function"
    },
    {
      "inputs": [],
      "name": "withdraw",
      "outputs": [],
      "stateMutability": "nonpayable",
      "type": "function"
    }
  ],
  "bytecode": "0x6080604052670de0b6b3a7640000600d5534801561001c57600080fd5b5033604051806040016040528060088152602001674a75737441426f7960c01b81525060405180604001604052806003815260200162424f5960e81b815250816002908161006a91906101b1565b50600361007782826101b1565b505060008055506001600160a01b0381166100ac57604051631e4fbdf760e01b81526000600482015260240160405180910390fd5b6100b5816100c0565b506001600a5561026f565b600980546001600160a01b038381166001600160a01b0319831681179093556040519116919082907f8be0079c531659141344cd1fd0a4f28419497f9722a3daafe3b4186f6b6457e090600090a35050565b634e487b7160e01b600052604160045260246000fd5b600181811c9082168061013c57607f821691505b60208210810361015c57634e487b7160e01b600052602260045260246000fd5b50919050565b601f8211156101ac57806000526020600020601f840160051c810160208510156101895750805b601f840160051c820191505b818110156101a95760008155600101610195565b50505b505050565b81516001600160401b038111156101ca576101ca610112565b6101de816101d88454610128565b84610162565b6020601f82116001811461021257600083156101fa5750848201515b600019600385901b1c1916600184901b1784556101a9565b600084815260208120601f198516915b828110156102425787850151825560209485019460019092019101610222565b50848210156102605786840151600019600387901b60f8161c191681555b50505050600190811b01905550565b6115228061027e6000396000f3fe6080604052600436106101665760003560e01c80636a627842116100d157806391b7f5ed1161008a578063b88d4fde11610064578063b88d4fde146103cd578063c87b56dd146103e0578063e985e9c514610400578063f2fde38b1461042057600080fd5b806391b7f5ed1461037857806395d89b4114610398578063a22cb465146103ad57600080fd5b80636a627842146102da57806370a08231146102fa578063715018a61461031a5780637b1b1de61461032f5780637d55094d146103455780638da5cb5b1461035a57600080fd5b806322f3e2d41161012357806322f3e2d41461025257806323b872dd1461026c5780633ccfd60b1461027f57806342842e0e1461029457806343508b05146102a75780636352211e146102ba57600080fd5b806301ffc9a71461016b5780630675b7c6146101a057806306fdde03146101c2578063081812fc146101e4578063095ea7b31461021c57806318160ddd1461022f575b600080fd5b34801561017757600080fd5b5061018b610186366004611008565b610440565b60405190151581526020015b60405180910390f35b3480156101ac57600080fd5b506101c06101bb3660046110bc565b610492565b005b3480156101ce57600080fd5b506101d76104aa565b604051610197919061114b565b3480156101f057600080fd5b506102046101ff36600461115e565b61053c565b6040516001600160a01b039091168152602001610197565b6101c061022a36600461118e565b610577565b34801561023b57600080fd5b50600154600054035b604051908152602001610197565b34801561025e57600080fd5b50600b5461018b9060ff1681565b6101c061027a3660046111b8565b610583565b34801561028b57600080fd5b506101c06106e8565b6101c06102a23660046111b8565b61073b565b6101c06102b536600461118e565b61075b565b3480156102c657600080fd5b506102046102d536600461115e565b6108db565b3480156102e657600080fd5b506101c06102f53660046111f5565b6108e6565b34801561030657600080fd5b506102446103153660046111f5565b6109ba565b34801561032657600080fd5b506101c0610a00565b34801561033b57600080fd5b50610244600d5481565b34801561035157600080fd5b506101c0610a14565b34801561036657600080fd5b506009546001600160a01b0316610204565b34801561038457600080fd5b506101c061039336600461115e565b610a30565b3480156103a457600080fd5b506101d7610a3d565b3480156103b957600080fd5b506101c06103c8366004611210565b610a4c565b6101c06103db36600461124c565b610ab8565b3480156103ec57600080fd5b506101d76103fb36600461115e565b610af9565b34801561040c57600080fd5b5061018b61041b3660046112c8565b610b29565b34801561042c57600080fd5b506101c061043b3660046111f5565b610b57565b60006301ffc9a760e01b6001600160e01b03198316148061047157506380ac58cd60e01b6001600160e01b03198316145b8061048c5750635b5e139f60e01b6001600160e01b03198316145b92915050565b61049a610b92565b600c6104a6828261137c565b5050565b6060600280546104b9906112fb565b80601f01602080910402602001604051908101604052809291908181526020018280546104e5906112fb565b80156105325780601f1061050757610100808354040283529160200191610532565b820191906000526020600020905b81548152906001019060200180831161051557829003601f168201915b5050505050905090565b600061054782610bbf565b61055b5761055b6333d1c03960e21b610c04565b506000908152600660205260409020546001600160a01b031690565b6104a682826001610c0e565b600061058e82610cb1565b6001600160a01b0394851694909150811684146105b4576105b462a1148160e81b610c04565b60008281526006602052604090208054338082146001600160a01b038816909114176105f8576105e48633610b29565b6105f8576105f8632ce44b5f60e11b610c04565b801561060357600082555b6001600160a01b038681166000908152600560205260408082208054600019019055918716808252919020805460010190554260a01b17600160e11b17600085815260046020526040812091909155600160e11b84169003610695576001840160008181526004602052604081205490036106935760005481146106935760008181526004602052604090208490555b505b6001600160a01b0385168481887fddf252ad1be2c89b69c2b068fc378daa952ba7f163c4a11628f55a4df523b3ef600080a4806000036106df576106df633a954ecd60e21b610c04565b50505050505050565b6106f0610b92565b476107036009546001600160a01b031690565b6001600160a01b03166108fc829081150290604051600060405180830381858888f193505050501580156104a6573d6000803e3d6000fd5b61075683838360405180602001604052806000815250610ab8565b505050565b600b5460ff1661077e576040516373020e4b60e01b815260040160405180910390fd5b610786610d47565b6000600d54826107969190611451565b9050803410156107e45760405162461bcd60e51b8152602060048201526014602482015273125b9cdd59999a58da595b9d081c185e5b595b9d60621b60448201526064015b60405180910390fd5b6107ee8383610d71565b826001600160a01b03167f3f2c9d57c068687834f0de942a9babb9e5acab57d516d3480a3c16ee165a42738360405161082991815260200190565b60405180910390a2600061083d8234611468565b905080156108cf57604051600090339083908381818185875af1925050503d8060008114610887576040519150601f19603f3d011682016040523d82523d6000602084013e61088c565b606091505b50509050806108cd5760405162461bcd60e51b815260206004820152600d60248201526c1499599d5b990819985a5b1959609a1b60448201526064016107db565b505b50506104a66001600a55565b600061048c82610cb1565b600b5460ff16610909576040516373020e4b60e01b815260040160405180910390fd5b610911610d47565b6045610940826001600160a01b03166000908152600560205260409081902054901c67ffffffffffffffff1690565b1061095e576040516332a99b4360e21b815260040160405180910390fd5b610969816001610d71565b806001600160a01b03167f3f2c9d57c068687834f0de942a9babb9e5acab57d516d3480a3c16ee165a427360016040516109a591815260200190565b60405180910390a26109b76001600a55565b50565b60006001600160a01b0382166109da576109da6323d3ad8160e21b610c04565b506001600160a01b031660009081526005602052604090205467ffffffffffffffff1690565b610a08610b92565b610a126000610d8b565b565b610a1c610b92565b600b805460ff19811660ff90911615179055565b610a38610b92565b600d55565b6060600380546104b9906112fb565b3360008181526007602090815260408083206001600160a01b03871680855290835292819020805460ff191686151590811790915590519081529192917f17307eab39ab6107e8899845ad3d59bd9653f200f220920489ca2b5937696c31910160405180910390a35050565b610ac3848484610583565b6001600160a01b0383163b15610af357610adf84848484610ddd565b610af357610af36368d2bf6b60e11b610c04565b50505050565b6060610b0482610bbf565b610b215760405163163a09e160e31b815260040160405180910390fd5b61048c610ec0565b6001600160a01b03918216600090815260076020908152604080832093909416825291909152205460ff1690565b610b5f610b92565b6001600160a01b038116610b8957604051631e4fbdf760e01b8152600060048201526024016107db565b6109b781610d8b565b6009546001600160a01b03163314610a125760405163118cdaa760e01b81523360048201526024016107db565b60008054821015610bff5760005b5060008281526004602052604081205490819003610bf557610bee8361147b565b9250610bcd565b600160e01b161590505b919050565b8060005260046000fd5b6000610c19836108db565b9050818015610c315750336001600160a01b03821614155b15610c5457610c408133610b29565b610c5457610c546367d9dca160e11b610c04565b60008381526006602052604080822080546001600160a01b0319166001600160a01b0388811691821790925591518693918516917f8c5be1e5ebec7d5bd14f71427d1e84f3dd0314c0f7b2291e5b200ac8c7c3b92591a450505050565b60008181526004602052604090205480600003610d24576000548210610ce157610ce1636f96cda160e11b610c04565b5b50600019016000818152600460205260409020548015610ce257600160e01b8116600003610d0f57919050565b610d1f636f96cda160e11b610c04565b610ce2565b600160e01b8116600003610d3757919050565b610bff636f96cda160e11b610c04565b6002600a5403610d6a57604051633ee5aeb560e01b815260040160405180910390fd5b6002600a55565b6104a6828260405180602001604052806000815250610ecf565b600980546001600160a01b038381166001600160a01b0319831681179093556040519116919082907f8be0079c531659141344cd1fd0a4f28419497f9722a3daafe3b4186f6b6457e090600090a35050565b604051630a85bd0160e11b81526000906001600160a01b0385169063150b7a0290610e12903390899088908890600401611492565b6020604051808303816000875af1925050508015610e4d575060408051601f3d908101601f19168201909252610e4a918101906114cf565b60015b610ea2573d808015610e7b576040519150601f19603f3d011682016040523d82523d6000602084013e610e80565b606091505b508051600003610e9a57610e9a6368d2bf6b60e11b610c04565b805181602001fd5b6001600160e01b031916630a85bd0160e11b1490505b949350505050565b6060600c80546104b9906112fb565b610ed98383610f33565b6001600160a01b0383163b15610756576000548281035b610f036000868380600101945086610ddd565b610f1757610f176368d2bf6b60e11b610c04565b818110610ef0578160005414610f2c57600080fd5b5050505050565b6000805490829003610f4f57610f4f63b562e8dd60e01b610c04565b60008181526004602090815260408083206001600160a01b0387164260a01b6001881460e11b17811790915580845260059092528220805468010000000000000001860201905590819003610fad57610fad622e076360e81b610c04565b818301825b808360007fddf252ad1be2c89b69c2b068fc378daa952ba7f163c4a11628f55a4df523b3ef600080a4818160010191508103610fb2575060005550505050565b6001600160e01b0319811681146109b757600080fd5b60006020828403121561101a57600080fd5b813561102581610ff2565b9392505050565b634e487b7160e01b600052604160045260246000fd5b60008067ffffffffffffffff84111561105d5761105d61102c565b50604051601f19601f85018116603f0116810181811067ffffffffffffffff8211171561108c5761108c61102c565b6040528381529050808284018510156110a457600080fd5b83836020830137600060208583010152509392505050565b6000602082840312156110ce57600080fd5b813567ffffffffffffffff8111156110e557600080fd5b8201601f810184136110f657600080fd5b610eb884823560208401611042565b6000815180845260005b8181101561112b5760208185018101518683018201520161110f565b506000602082860101526020601f19601f83011685010191505092915050565b6020815260006110256020830184611105565b60006020828403121561117057600080fd5b5035919050565b80356001600160a01b0381168114610bff57600080fd5b600080604083850312156111a157600080fd5b6111aa83611177565b946020939093013593505050565b6000806000606084860312156111cd57600080fd5b6111d684611177565b92506111e460208501611177565b929592945050506040919091013590565b60006020828403121561120757600080fd5b61102582611177565b6000806040838503121561122357600080fd5b61122c83611177565b91506020830135801515811461124157600080fd5b809150509250929050565b6000806000806080858703121561126257600080fd5b61126b85611177565b935061127960208601611177565b925060408501359150606085013567ffffffffffffffff81111561129c57600080fd5b8501601f810187136112ad57600080fd5b6112bc87823560208401611042565b91505092959194509250565b600080604083850312156112db57600080fd5b6112e483611177565b91506112f260208401611177565b90509250929050565b600181811c9082168061130f57607f821691505b60208210810361132f57634e487b7160e01b600052602260045260246000fd5b50919050565b601f82111561075657806000526020600020601f840160051c8101602085101561135c5750805b601f840160051c820191505b81811015610f2c5760008155600101611368565b815167ffffffffffffffff8111156113965761139661102c565b6113aa816113a484546112fb565b84611335565b6020601f8211600181146113de57600083156113c65750848201515b600019600385901b1c1916600184901b178455610f2c565b600084815260208120601f198516915b8281101561140e57878501518255602094850194600190920191016113ee565b508482101561142c5786840151600019600387901b60f8161c191681555b50505050600190811b01905550565b634e487b7160e01b600052601160045260246000fd5b808202811582820484141761048c5761048c61143b565b8181038181111561048c5761048c61143b565b60008161148a5761148a61143b565b506000190190565b6001600160a01b03858116825284166020820152604081018390526080606082018190526000906114c590830184611105565b9695505050505050565b6000602082840312156114e157600080fd5b815161102581610ff256fea2646970667358221220c3faebe512423f8b33683e6c9c2f94ca785ae69e7ab6514067c1d50b25fd993164736f6c634300081c0033",
  "linkReferences": {},
  "deployedLinkReferences": {}
}